:020000040800F2
:10000000FFFF012049110008ED110008EF11000861
:10001000F1110008F3110008F511000800000000BC
:10002000000000000000000000000000F7110008C0
:10003000F911000800000000FB110008FD11000884
:1000400095110008951100089511000895110008F8
:1000500095110008951100089511000895110008E8
:1000600095110008951100089511000895110008D8
:1000700095110008951100089511000895110008C8
:1000800095110008951100089511000895110008B8
:1000900095110008951100089511000895110008A8
:1000A0009511000895110008951100089511000898
:1000B0009511000895110008812E0008951100087F
:1000C0009511000895110008951100089511000878
:1000D00095110008F12C00089511000895110008F1
:1000E0009511000895110008951100089511000858
:1000F0009511000895110008951100089511000848
:100100009511000895110008AD2E00089511000802
:100110009511000895110008951100089511000827
:100120009511000895110008951100089511000817
:100130009511000895110008951100089511000807
:1001400095110008951100089511000895110008F7
:1001500095110008951100089511000895110008E7
:1001600095110008951100089511000895110008D7
:100170009511000895110008951100080000000075
:0801800095110008951100081B
:10018800844641EA000313F003036DD1403A41D39A
:1001980051F8043B40F8043B51F8043B40F8043B59
:1001A80051F8043B40F8043B51F8043B40F8043B49
:1001B80051F8043B40F8043B51F8043B40F8043B39
:1001C80051F8043B40F8043B51F8043B40F8043B29
:1001D80051F8043B40F8043B51F8043B40F8043B19
:1001E80051F8043B40F8043B51F8043B40F8043B09
:1001F80051F8043B40F8043B51F8043B40F8043BF9
:1002080051F8043B40F8043B51F8043B40F8043BE8
:10021800403ABDD2303211D351F8043B40F8043B88
:1002280051F8043B40F8043B51F8043B40F8043BC8
:1002380051F8043B40F8043B103AEDD20C3205D398
:1002480051F8043B40F8043B043AF9D2043208D090
:10025800D2071CBF11F8013B00F8013B01D30B8802
:1002680003806046704700BF082A13D38B078DD0E0
:1002780010F003038AD0C3F10403D21ADB071CBFB2
:1002880011F8013B00F8013B80D331F8023B20F81C
:10029800023B7BE7043AD9D3013A11F8013B00F855
:1002A800013BF9D20B7803704B7843708B788370DD
:1002B8006046704781F0004102E000BF83F00043D0
:1002C80030B54FEA41044FEA430594EA050F08BFE9
:1002D80090EA020F1FBF54EA000C55EA020C7FEAAD
:1002E800645C7FEA655C00F0E2804FEA5454D4EB2A
:1002F8005555B8BF6D420CDD2C4480EA020281EAF4
:10030800030382EA000083EA010180EA020281EA2B
:100318000303362D88BF30BD11F0004F4FEA01317D
:100328004FF4801C4CEA113102D0404261EB41018C
:1003380013F0004F4FEA03334CEA133302D0524212
:1003480063EB430394EA050F00F0A780A4F10104CE
:10035800D5F1200E0DDB02FA0EFC22FA05F2801808
:1003680041F1000103FA0EF2801843FA05F35941EE
:100378000EE0A5F120050EF1200E012A03FA0EFC6D
:1003880028BF4CF0020C43FA05F3C01851EBE37197
:1003980001F0004507D54FF0000EDCF1000C7EEBB4
:1003A80000006EEB0101B1F5801F1BD3B1F5001FF2
:1003B8000CD349085FEA30004FEA3C0C04F1010411
:1003C8004FEA445212F5800F80F09A80BCF1004F3A
:1003D80008BF5FEA500C50F1000041EB045141EABC
:1003E800050130BD5FEA4C0C404141EB010111F4BD
:1003F800801FA4F10104E9D191F0000F04BF014668
:100408000020B1FA81F308BF2033A3F10B03B3F145
:1004180020020CDA0C3208DD02F1140CC2F10C02D5
:1004280001FA0CF021FA02F10CE002F11402D8BF33
:10043800C2F1200C01FA02F120FA0CFCDCBF41EAFF
:100448000C019040E41AA2BF01EB0451294330BDCE
:100458006FEA04041F3C1CDA0C340EDC04F11404AB
:10046800C4F1200220FA04F001FA02F340EA030082
:1004780021FA04F345EA030130BDC4F10C04C4F1C8
:10048800200220FA02F001FA04F340EA03002946A8
:1004980030BD21FA04F0294630BD94F0000F83F4F2
:1004A800801306BF81F480110134013D4EE77FEAD5
:1004B800645C18BF7FEA655C29D094EA050F08BF21
:1004C80090EA020F05D054EA000C04BF1946104602
:1004D80030BD91EA030F1EBF0021002030BD5FEA46
:1004E800545C05D14000494128BF41F0004130BD6E
:1004F80014F580043CBF01F5801130BD01F00045C2
:1005080045F0FE4141F470014FF0000030BD7FEA34
:10051800645C1ABF194610467FEA655C1CBF0B462F
:10052800024650EA013406BF52EA033591EA030F46
:1005380041F4002130BD00BF90F0000F04BF00213E
:10054800704730B54FF4806404F132044FF0000571
:100558004FF0000150E700BF90F0000F04BF0021EA
:10056800704730B54FF4806404F1320410F0004550
:1005780048BF40424FF000013EE700BF42004FEA4B
:10058800E2014FEA31014FEA02701FBF12F07F43C8
:1005980093F07F4F81F06051704792F0000F14BFC5
:1005A80093F07F4F704730B54FF4607401F0004509
:1005B80021F0004120E700BF50EA010208BF704760
:1005C80030B54FF000050AE050EA010208BF704755
:1005D80030B511F0004502D5404261EB41014FF4BE
:1005E800806404F132045FEA915C3FF4DCAE4FF0C2
:1005F80003025FEADC0C18BF03325FEADC0C18BFA9
:10060800033202EBDC02C2F1200300FA03FC20FAF9
:1006180002F001FA03FE40EA0E0021FA02F1144446
:10062800C1E600BF70B54FF0FF0C4CF4E06C1CEA5B
:1006380011541DBF1CEA135594EA0C0F95EA0C0FD0
:1006480000F0DEF82C4481EA030621EA4C5123EA43
:100658004C5350EA013518BF52EA033541F4801172
:1006680043F4801338D0A0FB02CE4FF00005E1FB25
:1006780002E506F00042E0FB03E54FF00006E1FB6F
:1006880003569CF0000F18BF4EF0010EA4F1FF04B2
:10069800B6F5007F64F5407404D25FEA4E0E6D41F2
:1006A80046EB060642EAC62141EA55514FEAC52003
:1006B80040EA5E504FEACE2EB4F1FD0C88BFBCF57F
:1006C800E06F1ED8BEF1004F08BF5FEA500E50F130
:1006D800000041EB045170BD06F0004646EA0101F6
:1006E80040EA020081EA0301B4EB5C04C2BFD4EB28
:1006F8000C0541EA045170BD41F480114FF0000E21
:10070800013C00F3AB8014F1360FDEBF002001F08E
:10071800004170BDC4F10004203C35DA0C341BDC08
:1007280004F11404C4F1200500FA05F320FA04F0DA
:1007380001FA05F240EA020001F0004221F000410E
:1007480010EBD37021FA04F642EB06015EEA430E81
:1007580008BF20EAD37070BDC4F10C04C4F12005B1
:1007680000FA04F320FA05F001FA04F240EA020064
:1007780001F0004110EBD37041F100015EEA430E35
:1007880008BF20EAD37070BDC4F1200500FA05F255
:100798004EEA020E20FA04F301FA05F243EA0203D4
:1007A80021FA04F001F0004121FA04F220EA0200E3
:1007B80000EBD3705EEA430E08BF20EAD37070BD29
:1007C80094F0000F0FD101F00046400041EB010109
:1007D80011F4801F08BF013CF7D041EA060195F0EB
:1007E800000F18BF704703F00046520043EB0303A5
:1007F80013F4801F08BF013DF7D043EA0603704792
:1008080094EA0C0F0CEA135518BF95EA0C0F0CD09C
:1008180050EA410618BF52EA4306D1D181EA0301E2
:1008280001F000414FF0000070BD50EA410606BFDC
:100838001046194652EA430619D094EA0C0F02D121
:1008480050EA013613D195EA0C0F05D152EA033666
:100858001CBF104619460AD181EA030101F0004184
:1008680041F0FE4141F470014FF0000070BD41F0CD
:10087800FE4141F4780170BD70B54FF0FF0C4CF4A7
:10088800E06C1CEA11541DBF1CEA135594EA0C0FC6
:1008980095EA0C0F00F0A7F8A4EB050481EA030E13
:1008A80052EA03354FEA013100F088804FEA0333FA
:1008B8004FF0805545EA131343EA12634FEA0222C8
:1008C80045EA111545EA10654FEA00260EF0004189
:1008D8009D4208BF964244F1FD0404F5407402D2DB
:1008E8005B084FEA3202B61A65EB03055B084FEA6C
:1008F80032024FF480104FF4002CB6EB020E75EB69
:10090800030E22BFB61A754640EA0C005B084FEA90
:100918003202B6EB020E75EB030E22BFB61A75460D
:1009280040EA5C005B084FEA3202B6EB020E75EB58
:10093800030E22BFB61A754640EA9C005B084FEAD0
:100948003202B6EB020E75EB030E22BFB61A7546DD
:1009580040EADC0055EA060E18D04FEA051545EACC
:1009680016754FEA06164FEAC30343EA52734FEA75
:10097800C2025FEA1C1CC0D111F4801F0BD141EAEE
:1009880000014FF000004FF0004CB6E711F4801F53
:1009980004BF01430020B4F1FD0C88BFBCF5E06F33
:1009A8003FF6AFAEB5EB030C04BFB6EB020C5FEA43
:1009B800500C50F1000041EB045170BD0EF0004E98
:1009C8004EEA113114EB5C04C2BFD4EB0C0541EACA
:1009D800045170BD41F480114FF0000E013C90E6C7
:1009E80045EA060E8DE60CEA135594EA0C0F08BF8B
:1009F80095EA0C0F3FF43BAF94EA0C0F0AD150EA8A
:100A080001347FF434AF95EA0C0F7FF425AF10461C
:100A180019462CE795EA0C0F06D152EA03353FF444
:100A2800FDAE1046194622E750EA410618BF52EAC1
:100A380043067FF4C5AE50EA41047FF40DAF52EA95
:100A480043057FF4EBAE12E74FF0FF3C06E000BF32
:100A58004FF0010C02E000BF4FF0010C4DF804CD3F
:100A68004FEA410C7FEA6C5C4FEA430C18BF7FEAFF
:100A78006C5C1BD001B050EA410C0CBF52EA430C2D
:100A880091EA030F02BF90EA020F0020704710F1AD
:100A9800000F91EA030F58BF994208BF90422CBF3C
:100AA800D8176FEAE37040F0010070474FEA410C35
:100AB8007FEA6C5C02D150EA013C07D14FEA430C53
:100AC8007FEA6C5CD6D152EA033CD3D05DF8040BC4
:100AD800704700BF8446104662468C4619466346F6
:100AE80000E000BF01B5FFF7B7FF002848BF10F1CD
:100AF800000F01BD4DF808EDFFF7F4FF0CBF012012
:100B080000205DF808FB00BF4DF808EDFFF7EAFF8D
:100B180034BF012000205DF808FB00BF4DF808ED48
:100B2800FFF7E0FF94BF012000205DF808FB00BF3D
:100B38004DF808EDFFF7CEFF94BF012000205DF8C7
:100B480008FB00BF4DF808EDFFF7C4FF34BF0120D4
:100B580000205DF808FB00BF4FEA410212F50012C1
:100B680015D211D56FF47873B3EB625212D94FEAEC
:100B7800C12343F0004343EA505311F0004F23FAD6
:100B880002F018BF404270474FF00000704750EA2B
:100B9800013005D111F0004008BF6FF000407047E8
:100BA8004FF00000704700BF4BB942B9002908BF99
:100BB800002802D04FF0FF31084600F03BB882B061
:100BC800EC462DE9005000F01DF8DDF804E002B015
:100BD8000CBC70472DE9F041069C154606460F46A9
:100BE800984600F029F805FB01F300FB0838A5FB3F
:100BF8000023B21A434467EB0303C4E90023BDE8AA
:100C0800F08100BF2DE9F041069C904606460F464C
:100C18001D4600F05FF900FB05F5A0FB082308FB63
:100C28000155B21A2B4467EB0303C4E90023BDE85E
:100C3800F08100BF704700BF00292DE9F043C0F2E2
:100C4800A6800026002BC0F29C80884694469E46CB
:100C5800154604460F46002B3DD18A4259D9B2FAAF
:100C680082F33BB1C3F120029F4020FA02F29D407B
:100C780017439C40290C220CB7FBF1FEA8B201FBDC
:100C88001E7742EA074700FB0EF3BB420AD97F19D9
:100C98000EF1FF3280F00581BB4240F20281AEF1D5
:100CA800020E2F44FF1AA4B2B7FBF1F301FB13772E
:100CB80044EA074700FB03F0B84208D97F1903F15B
:100CC800FF3280F0F080B84240F2ED80023B43EA08
:100CD8000E43002203E08B420FD900221346341C36
:100CE80018BF012460424FF0000565EB45015840EC
:100CF800514000196941BDE8F083B3FA83F2002A34
:100D080040F086808B4202D3844500F2DB800123C9
:100D1800E5E712B90123B3FBF2F5B5FA85F000282F
:100D28003BD1781B4FEA154E1FFA85FC0122B0FB18
:100D3800FEF8210C0EFB180741EA07470CFB08F3E5
:100D4800BB4207D97F1908F1FF3102D2BB4200F23A
:100D5800BD808846FF1AA4B2B7FBFEF30EFB1377DB
:100D680044EA07470CFB03FCBC4507D97F1903F18C
:100D7800FF3102D2BC4500F2A7800B4643EA084384
:100D8800ADE752426FEA060663EB43035DE7404274
:100D980061EB41014FF0FF3654E7C0F1200224FA1D
:100DA80002F107FA00F385404FEA154ED740194380
:100DB800B7FBFEF20B0C0EFB12771FFA85FC43EA19
:100DC80007430CFB02F79F4204FA00F407D95B19AA
:100DD80002F1FF3074D29F4272D9023A2B44DF1BD2
:100DE80089B2B7FBFEF80EFB187341EA03430CFB0C
:100DF80008F79F4208D95B1908F1FF315CD29F427E
:100E08005AD9A8F102082B44D81B48EA02428EE7B7
:100E1800C2F120032CFA03F10EFA02FE20FA03F7BE
:100E280041EA0E0E08FA02F028FA03F14FEA1E45CD
:100E38003843B1FBF5F8030C05FB18111FFA8EF7C0
:100E480043EA014107FB08F38B420CFA02FC09D97B
:100E580011EB0E0108F1FF3930D28B422ED9A8F1DF
:100E680002087144C91A80B2B1FBF5F305FB1311EE
:100E780040EA014107FB03F78F4208D911EB0E0145
:100E880003F1FF3016D28F4214D9023B714443EA72
:100E98000843C91BA3FB0C89494509D305D0002287
:100EA8001DE79646FEE6134611E794404445F6D200
:100EB800013BF4E70346EAE78846A5E7C846D1E7D9
:100EC80002468CE713460AE7023B57E7A8F10208F7
:100ED8002F443FE72DE9F041002B44D18A421546C3
:100EE80004464FD9B2FA82F70E464FB1C7F1200334
:100EF800B94020FA03F602FA07F50E4300FA07F4A0
:100F08004FEA154E230CB6FBFEF0AFB20EFB106194
:100F180043EA014307FB00F1994209D95B1900F143
:100F2800FF3280F0EC80994240F2E98002382B448D
:100F38005A1AA4B2B2FBFEF30EFB132244EA024291
:100F480007FB03F7974208D9521903F1FF3180F0E4
:100F5800D880974240F2D580023B43EA0040002601
:100F68003146BDE8F0818B4247D8B3FA83F6002EAC
:100F780048D18B4202D3824200F2CD800120314613
:100F8800BDE8F08112B90125B5FBF2F5B5FA85F88F
:100F9800B8F1000F77D14A1B4FEA154EAFB20126C0
:100FA800B2FBFEF0230C0EFB102143EA014107FBC4
:100FB80000F38B4207D9491900F1FF3202D28B4264
:100FC80000F2BA801046C91AA4B2B1FBFEF30EFBB8
:100FD800131144EA014407FB03F7A74208D964192F
:100FE80003F1FF3280F08F80A74240F28C80023BF1
:100FF80043EA00403146BDE8F081002630463146DC
:10100800BDE8F081C6F1200422FA04F5B3402B4371
:1010180020FA04FC01FA06F721FA04F54FEA134E08
:101028004CEA0707B5FBFEF8390C0EFB18551FFAFA
:1010380083FC41EA05450CFB08F1A94202FA06F2D5
:1010480004D9ED1808F1FF3467D3A0466D1ABFB272
:10105800B5FBFEF40EFB145547EA05410CFB04FCF6
:101068008C4504D9C91804F1FF355CD32C4644EAF1
:101078000844CCEB0101A4FB0223994248D344D095
:10108800204600266CE7C8F1200401FA08F305FAA7
:1010980008F520FA04F7E1404FEA154E1F43B1FB6B
:1010A800FEF63A0C0EFB16111FFA85FC42EA0143C4
:1010B8000CFB06F29A4200FA08F407D95B1906F10C
:1010C800FF3137D29A4235D9023E2B449B1ABFB220
:1010D800B3FBFEF00EFB103347EA03430CFB00F1B1
:1010E800994207D95B1900F1FF3221D299421FD9E1
:1010F80002382B445A1A40EA0646674650E710461B
:1011080016E70B4629E7134672E7B0409042B7D27C
:10111800601E002624E7304622E7A94295D9A8F1A7
:1011280002081D4492E78C45A0D9023C19449EE769
:101138001046DFE70E46C9E70238294443E700BFF7
:10114800DFF830D0002103E00B4B5B5843500431EB
:101158000A480B4B42189A42F6D30A4A02E0002387
:1011680042F8043B084B9A42F9D300F011F800F01A
:10117800BDF87047FFFF01203C0C03080000002069
:101188007C0B002080D30020087B0120FEE70000B4
:101198000C4B1A68002142F001021A6099601A6823
:1011A80022F0847222F480321A60074A5A601A6860
:1011B80022F480221A60D960044B4FF000629A60D2
:1011C800704700BF003802401030002400ED00E0F6
:1011D800034B1A6810441A688242FCD3704700BF58
:1011E80088D300207047FEE7FEE7FEE7FEE770477A
:1011F8007047704708B506F0EBF9124A13680133D7
:101208001360114B1A6801321A6018681922B0FB72
:10121800F2F102FB110212B90C4A0121117019688E
:101228003223B1FBF3F203FB121313B9084B01226B
:101238001A70084B1A6801321A601B68064B0122A3
:101248001A7008BD80D3002088D300208DD30020D9
:101258008CD3002084D300208ED3002008B5044806
:101268004FF4005106F07CF9024814F0B3FEF6E79B
:10127800000C024060B10108084A136843F02703D4
:101288001360074B1B68DA0706D5064B1B68DB079C
:1012980042BF054B01221A60704700BF042004E0DA
:1012A800F0ED00E0000E00E094D30020064B1B6830
:1012B8004BB1064B1B68DB0105D54FF060431A683C
:1012C800002AFAD01870704794D30020FCED00E093
:1012D800054B1B6810B533B1441E14F8010F10B14B
:1012E800FFF7E4FFF9E710BD94D30020F0B5A9B0EB
:1012F80006F058F9904A136C43F080531364A2F532
:10130800E4320224136843F44043136001231C931E
:101318001D934FF480032393192324934FF4A87348
:1013280025931CA8072322942694279302F0BCFC3B
:10133800002840F0F9800F2306934FF4A05308903B
:10134800099306A84FF48053052107940A9302F0E5
:10135800ADFE002840F0E88006F056F941F201039E
:10136800984201BF754A136843F480731360FFF70E
:1013780083FF7348FFF7ACFF7248734901224FF0AF
:10138800204303604A600223CA6010220B608B600E
:101398000B614B61426100234FF480528B61836083
:1013A800C36003618361C361036243628262C36293
:1013B8000363436383630A464FF48013C36304F0F3
:1013C8009DFE002840F0B080604B614A1A604FF4DF
:1013D80080421A615F4A5A60402258619860DA6117
:1013E8001862FE221846DA609A6104F0E9F80028CB
:1013F80040F09A80584B594998604FF4E13283E89D
:101408000600D860186198610C22D86118465A61A4
:1014180004F0F2FD002840F08780514B514C1B68C6
:10142800514AB3FBF2F3514A2061013B84E80C00B6
:10143800A06040F207732046E36005F001FC024615
:10144800002871D160231593179018901B901A905B
:10145800199040F2465315A92046169305F0BCFC96
:101468000146002860D1204605F04EFE00285BD1D9
:101478000BA801A903F000F80E9B13B902F0CCFFEA
:1014880002E002F0C9FF4000394B3A4A1A6044F6BC
:101498001F62DA6044F62062B0FBF2F001380022E5
:1014A800586018461A619A6005F05AFB00283BD12B
:1014B80010A802A902F0E0FF139B13B902F0ACFFD9
:1014C80002E002F0A9FF40002B4B2C4A1A6045228B
:1014D800DA6044F62062B0FBF2F00138002258606E
:1014E80018461A619A6005F03BFB0446E0B9124AB7
:1014F8002348136B43F0080313634FF4005303228C
:101508001C931CA901231D931F921E9305F0D0FE66
:10151800204621464FF4E132234601F0DBFC28B196
:101528001848194914F014FDFFF798FE01F01EFD44
:1015380070B31648F5E700BF00380240003C02408F
:1015480081B10108387801201C780120BC7801207D
:1015580000540040801A0600C86F012000100140A6
:101568000000002050750120005125020040014074
:10157800807801200008004010750120000C004010
:10158800000C02408EB1010878B10108A7B101082A
:1015980001F046FA012802D04C4814F0D9FC00F0BA
:1015A80079FF012802D04A4814F0D2FC49484A4938
:1015B80006F072F808BB494814F00CFD4848464943
:1015C800012206F0A5FD0028AED1464806F02CFE03
:1015D80002460028A8D1404803A906F0D3FD0446D6
:1015E8000028A1D103A9404814F0B2FC204606F017
:1015F8001FF801463D4814F0ABFC01253C4E3378FA
:10160800002B4AD03B493C48013514F0A1FCADB24F
:1016180000213A4B1B888CB2A34201F1010711D378
:1016280001F0B2FD364B374A1988013821444FF48E
:10163800167303FB0013344832F8132014F088FCA7
:101648003946E6E70021314B1B888CB2A34201F1F1
:1016580001070FD301F098FD2D4B2E4A1988013848
:1016680021444B2303FB00132B48D25C14F070FC7D
:101678003946E8E7EB074FF00A0006D49321142215
:101688004FF0FF3302F06AF905E04F2119224FF0BD
:10169800FF3301F0EBFF00233370204C23781BB19C
:1016A80001F076FC002323701D4C23783BB11D4BC1
:1016B80018680AF053FE0EF045FF002323701A4BFA
:1016C8001A78002A9AD000221A7097E7C2B1010846
:1016D800D6B10108080000204C750120F1B10108BD
:1016E8008C75012005B201080EB201081EB201086E
:1016F800040000203EB201082EB2010892D3002057
:101708009ED30020A0D3002043B2010898D3002024
:101718009CD30020087001205AB201088CD3002005
:101728008DD30020107901208ED30020F8B51546FE
:101738000C46064601F028FD0146164814F008FC40
:10174800154B1D8001F020FD631E9BB25A19B2F59E
:10175800167F1DDC114A13802A1992B25D1CADB2A6
:10176800954206F1020611D00D4F16F8024C411EA3
:101778004FF4966E0EFB0171240221F8134016F8FF
:10178800017C3C4321F813402B46E7E70020F8BDD5
:101798000120F8BD6EB201089AD3002090D3002032
:1017A800A01E0120F8B5164B0C461A8015460746B0
:1017B80001F0EAFC631E9BB25A19B2F5167F1DDCD4
:1017C800104A13802A1992B25E1CB6B2964207F1EB
:1017D800020711D00C4917F8025C441E4FF4966EAC
:1017E8000EFB04142D0224F8135017F8011C0D43A6
:1017F80024F813503346E7E70020F8BD0120F8BD70
:1018080092D300209ED30020A0D300202DE9F84FCA
:101818001C4BD7080D4614467A1C1A80064601F060
:10182800B3FC691E89B20B19B3F5167F27DC164B7A
:1018380001384FF04B0808FB0038144BC8081880D3
:1018480001F0070507EB000BB24658450CD000F134
:1018580001091FFA89F94044294608221AF8013B70
:1018680001F0D4FE4846F0E714F0070204D04044E3
:101878002946F35D01F0CAFE0020BDE8F88F01207B
:10188800BDE8F88F98D30020087001209CD3002071
:101898000120704710B50446C0B2FFF707FD204687
:1018A80010BD4FF0FF30704708B503460A4602489E
:1018B800194614F04DFBFEE785B201082DE9F04FFB
:1018C8005E4B5F4D00268BB085E8480001238DF8FC
:1018D80013309DF81320AE60D2B29A42EE602E61AA
:1018E8006E61AE6101D00120A4E0564B5648596C98
:1018F80041F400615964196B41F480011963196B53
:1019080041F004011963196B41F0080119630223BE
:101918000AAC06930C2309934FF4F85344F8143D8A
:101928000327214607924FF00408089705F0C0FCEA
:1019380021464648CDF8148005F0BAFC0521324608
:101948003120434C04F06CF8312004F0ABF84FF42C
:1019580080434048A3614FF0006C4FF480614FF41E
:101968008052206000934FF0200B4FF400134FF487
:10197800403A4FF400092046C4F804C0216162616E
:101988002363CDF80CC002910192A660E660C4F80A
:101998001CB0C4F820A0C4F82480A762C4F82C9016
:1019A800AC65A56304F0B2FC20462B4C04F0CCFBDC
:1019B800009BA36140204FF40013DDF80CC002998E
:1019C800019AA06023632046244BC4F804C0236016
:1019D80021616261E660C4F81CB0C4F820A0C4F8B4
:1019E8002480A762C4F82C90EC65A56304F08EFCF3
:1019F800204604F0A9FB062132463B2004F010F8EB
:101A08003B2004F04FF806214520324604F008F840
:101A1800452004F047F82846114903F041F800280A
:101A28007FF461AF28464FF4006103F01BFA0030E1
:101A380018BF01200BB0BDE8F08F00BF002C01409B
:101A4800486A01200038024000080240000C0240A9
:101A5800A86A012058640240A0690120A0640240DD
:101A6800F069012007B50146049800900598019097
:101A7800044803F0A4FA003018BF012003B05DF851
:101A880004FB00BF486A012007B50146049800908E
:101A980005980190044803F053FB003018BF01205B
:101AA80003B05DF804FB00BF486A0120014803F059
:101AB8003DBC00BF486A01200146014802F0A8BEAB
:101AC800486A012008B50D4B1A6C42F004021A64EA
:101AD8001A6C42F008021A641E200421002203F046
:101AE8009FFF32200421012203F09AFF1E2003F0F9
:101AF800D9FF3220BDE8084003F0D4BF00380240C7
:101B08007FB50D4B0D485A6C42F480325A641A6BFB
:101B180042F010021A63022302930123039306A9D9
:101B2800032304930593202341F8143D05F0C0FBDB
:101B380007B05DF804FB00BF003802400010024007
:101B4800264B1A6B42F00102F0B51A631A6B244C4B
:101B580042F001021A635A6C42F010025A641A6B7E
:101B680087B042F004021A63022600254FF400737E
:101B78000727204601A90193059702960395049625
:101B880005F096FB0597174F4FF48063204601A98F
:101B98000124019305F08CFB0323384601A9049323
:101BA80002940395019405F083FB384601A9019638
:101BB80005F07EFB384621462A4605F0B9FC384632
:101BC8003146224605F0B4FC21462A46252003F07A
:101BD80027FF252003F066FF07B0F0BD003802405C
:101BE80000000240000802402DE9F043264C274E31
:101BF800236B43F002032363236B43F00203236345
:101C0800236B87B04FF0040943F0040323630125D5
:101C180012234FF04008022730460DEB09010293CA
:101C2800CDF8048004970395CDF8149005F040FB97
:101C38002A463046414605F07BFC4FF40078304692
:101C48000DEB0901CDF80480CDF8149005F030FBB8
:101C58002A463046414605F06BFC04970C4F029526
:101C6800082638460DEB09010196039505F020FB7F
:101C7800384631462A4605F05BFC236C43F40013D2
:101C8800236407B0BDE8F083003802400004024036
:101C9800000802401D4B1E489A6B42F00102F0B545
:101CA8009A631A6B1B4F42F008021A631A6B42F0D0
:101CB80010021A631A6B87B042F002021A630323F8
:101CC80006AC04930C2305934CF2B37344F8143D0B
:101CD8000226012521460296039505F0E9FA4FF6FA
:101CE800887321460C48019305F0E2FA38462146EC
:101CF800019602950496039505F0DAFA38463146BE
:101D08002A4605F015FC07B0F0BD00BF00380240B8
:101D1800000C0240000402400010024070474FF0DF
:101D2800FF3070474FF400534B600020704701208C
:101D380070470000022881BF034B092200201A6067
:101D480098BF0120704700BF047B0120024B162278
:101D58001A604FF0FF307047047B01200020704765
:101D680070B50E46144640B90D46AB1BA3420ADABD
:101D7800FFF797FD05F8010BF7E7044B09221A60F6
:101D88004FF0FF3070BD24EAE47070BD047B012081
:101D98000138012870B50E4614460AD80D46AB1B0B
:101DA800A34204DA15F8010BFFF774FDF7E72046A4
:101DB80070BD034B09221A604FF0FF3070BD00BFA1
:101DC800047B012008B5012002490422FFF7E0FF47
:101DD800FEE700BFB2B2010808B50D4B1A680AB990
:101DE8000C4A1A601B68EFF30882184490420AD91B
:101DF800094919220220FFF7CBFF084B0C221A6071
:101E08004FF0FF3008BD024A1060184608BD00BFF9
:101E1800F86A0120087B0120B7B20108047B012081
:101E280007B5064B40F60901186809F077FD6946C1
:101E380006F09AFC03B05DF804FB00BF247901208A
:101E480003680F2B10B539D11E4B1F4C1978022986
:101E580001D11E4814E023685A1C2260032B12D8B3
:101E6800DFE803F00204060C194802E0194800E014
:101E7800194802210A460EF08BFD06E01748022198
:101E88000A460EF085FD00232360154B1B78012BB5
:101E980003D0022B01D1134800E013480EF0F0F9EB
:101EA80000203E22014613460FF0B8FF01203D22D4
:101EB80001461346BDE810400FF0B0BFBDE8104022
:101EC8000AF076BE00790120006B0120ECD20108EF
:101ED8009CD20108B0D20108C4D20108D8D20108A6
:101EE80028790120FF80800000A0DF0038B5036852
:101EF800262B044600F02A81B3F5107F00F06F818D
:101F08001D2B40F068814568B549284607F0A8FFB1
:101F180028460E2108F064FA2846002107F0D2FF6F
:101F280040F60801606809F0F9FCAE49054606F07C
:101F38001BFC2846AC4906F03FFC28460C2106F05D
:101F480001FC2846A94906F0EBFB40F60901606848
:101F580009F0E4FCA649054606F02EFC2846A549EA
:101F680006F002FC28460E2106F0ECFB41F60901BA
:101F7800606809F0D3FCA049054606F0F5FB284641
:101F88009E4906F019FC28460C2106F0DBFB284682
:101F98009B4906F0C5FB4FF40361606809F0BEFC7D
:101FA8000221054606F0CEFB2846964906F0DCFBE2
:101FB8002846954906F000FC40F63101606809F0B2
:101FC800ADFC92490546002206F083FE2846012210
:101FD8008F4906F07EFE28468E4906F09FFE284669
:101FE80002228D4906F075FE40F63301606809F05B
:101FF80095FC86490546002206F06BFE284601221C
:10200800864906F066FE2846824906F087FE28467D
:102018008349022206F05DFE032228467E4906F027
:1020280058FE40F63401606809F078FC7D490546A1
:1020380006F09AFB28467C4906F0BEFB4FF42A615D
:10204800606809F06BFC7949054606F08DFB284667
:10205800754906F0B1FB40F6A121606809F05EFC05
:102068007349054606F080FB28466F4906F0A4FB35
:1020780040F61E01606809F051FC6E49054608F0FB
:10208800A5FF2846634908F0C9FF4FF4026160685C
:1020980009F044FC6849054606F066FB284667498E
:1020A80006F08AFB40F62101606809F037FC6449B4
:1020B800054608F03EFB2846564908F079FB2846B5
:1020C800012108F058FB5F4B6068012240F62401AB
:1020D8001A7009F023FC5949054606F06DFB28469D
:1020E800594906F041FB40F62601606809F016FCE4
:1020F8005649054606F038FB2846434906F05CFB7E
:1021080040F62801606809F009FC5149054606F0C7
:102118002BFB2846494906F04FFB40F63201606820
:1021280009F0FCFB1E220021054606F0A7FD494BDD
:1021380019682846C1F15F0106F0CAFC606840F6DC
:10214800080109F0EBFB444B18602EE0806809F0A9
:10215800A4FB40F6310290420146E3680ED004DC4D
:1021680040F61E0290422ED038BD40F63202904210
:102178000ED040F6330290421BD038BD052B2ED12D
:10218800606809F0CBFB06F08CFF2E4B987038BDC9
:10219800052B24D1606809F0C1FB06F08CFD2D4B9E
:1021A800C0F15F001860274B5860BDE83840FFF762
:1021B80037BE052B13D1606809F0B0FB06F071FF3C
:1021C800204B587038BD022B09D1244B1868BDE844
:1021D800384000F093B8BDE838400AF0E9BC38BD93
:1021E800047F0208D1B20108285F0208528D250039
:1021F800E09F0208D4B20108D7B20108E46C0208D3
:1022080052258D00DAB201083CD00208DEB201087E
:10221800E3B2010864DD0208E6B20108EAB2010887
:10222800F1B20108F8B20108B0740208FBB2010863
:10223800FDB2010800B30108E2B30108FCC00208BE
:1022480005B301080479012014B3010818B3010883
:10225800DCB3010818790120FC6A012044790120C7
:1022680030B5134885B007F0E5FD124808F066FD63
:1022780009F058FB002503460095019511210E4AE7
:102288000E4808F007FA06233F2201930C4B0090F2
:102298000446029368211346039572200AF01AF93E
:1022A800084B1860204609F076FA204605B030BD84
:1022B8006D99000825AA0008F51E0008E8B3010872
:1022C800491E00081079012008B503680F2B0DD1AD
:1022D8006FF07F400DF0D4FF06480DF0A3FF0648CD
:1022E80005212822BDE808400EF012BDBDE80840CF
:1022F8000AF05EBCA0AF0208086B01200E4B10B5B7
:102308000446186809F047FA0C4B186809F043FAB4
:102318000B4B186809F03FFA0A4B186809F03BFAAA
:10232800094B186809F037FA204608F000FFBDE8A5
:1023380010400EF007B900BF247901205079012020
:1023480044790120307901204079012003680F2B5E
:1023580037B5044627D0262B30D1806809F09DFA7E
:1023680040F611029042E36804D040F6120290420F
:102378000CD025E0022B23D1124B1868FFF7BEFFC3
:10238800114B0021186807F03DF919E0022B17D10D
:102398000D4B1D68002421462846013407F032F908
:1023A800652CF8D10CE001A90422406808F0A9FEC8
:1023B80001980DF063FF0EF07BFE01E00AF0F8FBD8
:1023C80003B030BD44790120386B012030B5036873
:1023D8000F2B89B0044643D0262B4CD1806809F0D6
:1023E8005CFAA0F60B00E3680A2846D8DFE800F09C
:1023F80006450A114545454545451500022B3CD182
:102408001F4B02E0022B38D11E4B1868FFF776FFEE
:1024180033E0022B31D11C4BF7E7052B2DD11B4B99
:10242800186806F048FC044604EBC4046400002560
:1024380000211748053404F0C5FEA4B2602301A9A1
:102448002A46134801930395049507950695059523
:10245800029404F0C1FC29460D4804F055FE0CE036
:1024680001A90422406808F04CFE01980DF006FF0F
:102478000EF01EFE01E00AF09BFB09B030BD00BF64
:10248800307901205079012024790120346B012012
:10249800507501202DE9F04F4FF47F0087B00DF003
:1024A800EDFE0EF005FE6FF07F40DFF8B883DFF831
:1024B800B8A3DA4FDA4EDFF8B4B3DFF8B4930DF00F
:1024C800DFFED8480DF0AEFEA0210522D6480EF05A
:1024D800FDFB40460DF0A6FE28220521D3480EF04C
:1024E8000FFC0EF02FF8002008F060FF0EF02AF81D
:1024F80000200DF0C3FE6FF0704008F057FF09F0A0
:1025080011FA514608F0DCFF00240625C84B386054
:10251800214601930095029420464FF4A072F023BF
:102528000AF088F8CDF804B030602146009502948E
:1025380020464FF4A072F0230AF07CF821464FF4AD
:10254800A072F023C9F800008DE820080294204604
:102558000AF070F8DFF81CB3CBF800003068FFF71A
:10256800CDFE09F0DFF9514608F0AAFF336838605C
:10257800009340F60B0396220193214632230295DD
:10258800204608F00CFCDFF8F0A2AA4FCAF80000B9
:10259800414608F043FDDAF80000A74908F016FDA7
:1025A800DAF80000012108F04AFDDAF80000DFF847
:1025B800CCA2394608F0AEFB3368009340F60C0312
:1025C800962201930295322320463C2108F0E7FB2E
:1025D8004146CAF8000008F021FDDAF800009749E2
:1025E80008F0F4FCDAF80000012108F028FDDAF818
:1025F8000000DFF88CA2394608F08CFB33680093A2
:1026080040F60D0396220193029532232046782145
:1026180008F0C5FB4146CAF8000008F0FFFCDAF8EC
:102628000000874908F0D2FCDAF80000012108F020
:1026380006FDDAF80000DFF84CA2394608F06AFB1C
:102648003368009340F60E03962201932146322305
:102658000295A02008F0A3FB4146CAF8000008F044
:10266800DDFCDAF80000774908F0B0FCDAF8000081
:10267800012108F0E4FCDAF80000DFF80CA2394682
:1026880008F048FB3368009340F60F039622019345
:10269800029532233C21A02008F081FB4146CAF86C
:1026A800000008F0BBFCDAF80000674908F08EFC6F
:1026B800DAF80000012108F0C2FCDAF80000DFF8BF
:1026C800CCA1394608F026FB336800934FF4016328
:1026D80096220193029532237821A02008F05FFB0F
:1026E8004146CAF8000008F099FCDAF8000057499A
:1026F800DFF89C8108F06AFCDAF80000012108F094
:102708009EFCDAF80000DFF88CA1394608F002FBDD
:10271800D9F800300093322140F611034FF4A0722B
:10272800019302950B46204608F039FB5146C8F83C
:10273800000008F073FCDFF860C1D8F80000CDF89D
:1027480014C0614608F042FCD8F80000DFF84C815C
:10275800012108F074FCD9F80030009340F6120308
:102768004FF4A07201930295322320466E2108F09F
:1027780016FB5146C8F8000008F050FCD8F80000D5
:10278800334908F023FCD8F80000012108F057FC71
:10279800D8F80000394608F0BDFAD9F8003000939F
:1027A800C82140F614030A46019302951923142000
:1027B80006F0FEFD274B2849186006F0E5FDDBF81A
:1027C80000300093322140F613034FF4A0720193B6
:1027D80002950B46204608F0E2FA204F5146386031
:1027E80008F01CFCDDF814C03868614608F0EEFB00
:1027F8003868012108F023FC336802948DE828002A
:1028080040F61503B421962203931420232306F0DF
:1028180015F9134B18600DF095FE41E04C6B012043
:1028280044790120A0AF0208C4B50108DFB501084A
:10283800D523000825AA0008F4B50108FEB501084B
:102848000BB6010818B6010822B601082BB6010814
:102858003BB60108386B0120C9900008446B012081
:10286800346B0120047F0208D12200085523000898
:102878003079012040790120046B0120486B012048
:10288800306B0120506B0120546B0120586B0120E4
:102898003C6B0120FCC0020836B60108406B0120E1
:1028A800FFF7DEFC044B186000F09AF8034B186041
:1028B800012007B0BDE8F08F24790120507901206C
:1028C80038B50368262B044664D0B3F5107F75D05D
:1028D8001D2B6FD145683A49284607F0C1FA2846AA
:1028E8000E2107F07DFD2846002107F0EBFA60680D
:1028F80040F6170109F012F83249054605F034FF91
:1029080028462F4905F058FF28460E2105F01AFFE2
:10291800606840F6180109F001F82949054605F0F4
:102928004BFF2846284905F01FFF28460E2105F0D1
:1029380009FF606841F6090108F0F0FF20490546E3
:1029480005F03AFF2846214905F00EFF28460E21DA
:1029580005F0F8FE606840F6190108F0DFFF184935
:10296800054605F029FF2846194905F0FDFE2846C9
:102978000E2105F0E7FE606840F61F0108F0CEFF63
:102988001449044608F022FB20461349BDE83840A4
:1029980008F044BB806808F080FF40F61F029042B0
:1029A800E3680BD1022B09D10C4B1868BDE83840FD
:1029B800FFF7A4BCBDE838400AF0FAB838BD00BF3C
:1029C800047F020845B6010854B6010862B601083A
:1029D80075B6010800B3010864DD020844790120D6
:1029E80013B50B4807F026FA0A4808F0A7F908F0CB
:1029F80099FF00220346009201920621064A0748E1
:102A080007F048FE044608F0C6FE204602B010BD96
:102A18006D99000825AA0008C9280008C0B6010851
:102A280008B501214FF4805000F080F805F004FD4E
:102A3800022004F0DBFD002005F022FE052004F052
:102A4800D5FD0EF073FBB0FA80F0400908BD4FF0D9
:102A5800C043188070470000014B1880704700BFC2
:102A68000000106000EB4101884204D0024B30F8AE
:102A7800022B1A80F8E770470000106000EB410154
:102A8800884204D0024B1B8820F8023BF8E77047C5
:102A98000000106010B5A0B001A80021142213F0A6
:102AA80009FA06A80021682213F004FA0022134646
:102AB800134914480EF05EFAF02104464FF4A07250
:102AC80000200CF0C0F94FF4A072F02100200CF0A7
:102AD800A3F90623204601A903930CF03CF90A4BFD
:102AE8000E930A4B0F930A4B11930A4B15932046EA
:102AF80006A9094A094B0CF04CF920B010BD00BFDB
:102B080064F70208F4F50208572A0008612A000849
:102B18006D2A0008852A0008C5E0000861E700085A
:102B2800012914BF4FF0FF30002070470E4B0340BF
:102B380070B505460E4603B920B90C484FF48861B4
:102B4800FEF7B2FE012E0A4C05D9084840F2424170
:102B5800FEF7AAFE00E016B1236B1D4302E0236BCB
:102B680023EA0505256370BD00EE8B81C83F020886
:102B78000038024002484FF448410EF0D1BE00BF71
:102B88007C0B002070470000024B00221A700120C5
:102B9800704700BF5C6B0120034A01231370034A8E
:102BA80010701846704700BF5C6B01205D6B0120F8
:102BB800054A137833B1054B1B7803800023137043
:102BC80001207047184670475C6B01205D6B01203F
:102BD80001207047014B01221A7070470400002041
:102BE800034B01221A70034B40221A70704700BF32
:102BF8005C6B01205D6B0120034B01221A70034BB3
:102C080080221A70704700BF5C6B01205D6B012049
:102C1800034B01221A70034B00221A70704700BF41
:102C28005C6B01205D6B0120034B01221A70034B82
:102C380020221A70704700BF5C6B01205D6B012079
:102C480038B5154C22680D46D36830B143F02003DF
:102C5800D360124813F0BEF902E023F02003D360DA
:102C68007DB101210A460E4804F062FC01220C489D
:102C7800022104F05DFC2268D36843F08003D3602E
:102C880038BD2368DA6822F08002DA60DA6842F038
:102C98004002DA6038BD00BFC86F0120E53F020876
:102CA8000008024001207047024B1B685860012051
:102CB800704700BFC86F0120024B1B685B68037038
:102CC80001207047C86F012010B50446044813F06E
:102CD80081F9E16B0348BDE8104013F039B900BF32
:102CE800F53F02080540020830B53A4C23681968D8
:102CF800DA68C90785B00AD5D20508D51A680092DE
:102D08005A680092009AE26B42F00102E263196885
:102D18005A698D070AD5D00708D51A6801925A68EA
:102D28000192019AE26B42F00402E26319685A695F
:102D380049070AD5D50708D51A6802925A68029237
:102D4800029AE26B42F00202E26319685A690807C4
:102D58000AD5D10708D51A6803925A680392039ACC
:102D6800E26B42F00802E2631A68DB68920604D557
:102D78009D0602D5184B1B68984723681A68DB68BC
:102D8800100604D5190602D5144B1B68984723680A
:102D98001A68DB68520611D55B060FD51048012169
:102DA800002204F0C5FB00220D48022104F0C0FBFC
:102DB800084B1A68D36823F04003D360E36B054DD2
:102DC80033B12846FFF780FFE96B064813F0C0F8D7
:102DD80005B030BDC86F0120607901205C79012001
:102DE800000802401A4002080120704710B5064C3E
:102DF800204603F053FD2368002220465A62BDE8AE
:102E0800104003F0FDBC00BF1075012010B5074C41
:102E1800204603F043FD2368002202205A6200F096
:102E2800CFFB2046BDE8104003F0EABC80780120C3
:102E380010B5084C204603F031FD236806480022EF
:102E48005A624FF4007104F073FB2046BDE810404D
:102E580003F0D6BC807801200008024008B5044879
:102E680003F01CFD0348BDE8084003F017BD00BF90
:102E7800807801201075012008B5074813F0AAF8DA
:102E880006484FF40071012204F052FB0448BDE8E3
:102E9800084003F05FBD00BF2C4002080008024054
:102EA8008078012008B5044813F094F80348BDE879
:102EB800084003F04FBD00BF3F40020810750120D5
:102EC800014B1B68184700BF6479012072B6704730
:102ED80062B6704738B520BB144C154D2560154CAB
:102EE800154D2560154C164D2560164C164D256060
:102EF800164C20601648174C04601748174C04609D
:102F08001748184C0460084611461A4600F04EF956
:102F1800044648B9FFF738FE28B1134B01221A704E
:102F280002E0022400E00324204638BD706B012033
:102F380001320008686B012025320008846B0120EB
:102F4800B5320008746B012041320008606B012023
:102F580060790120493300085C790120E9330008D1
:102F680064790120993400080500002010B5064C4A
:102F78002378012B05D1054B1B689847002020704A
:102F880010BD062010BD00BF05000020706B012099
:102F9800694B2DE9F3471C78002C40F0C7800DF1F0
:102FA8000600FFF705FE012840F0C280BDF8063094
:102FB800013B0F2B00F2BC80DFE803F0080CBA20BD
:102FC800BABABA6BBABABABABABABA7E5B4813F026
:102FD80001F8ADE05A485B4D12F0FCFF5A4B5B49D3
:102FE8001B685B4A2846984730B95A4B2A781B78A1
:102FF8009A4201D1042046E0012241E0534E56484E
:10300800564C12F0E7FF336855491A780A700121C7
:103018002170110602D55B7823702EE00023DFF8BB
:1030280064A11AF833104FEAC308D14629B3914274
:1030380020D14C4F01253D7000F0C8FA80B100F056
:10304800B9FA434B1880434B30681D7009EB0803ED
:103058003F495B6898470135112D2070F3D106E090
:10306800D0443068D8F80430394998472070002394
:103078003B7002E00133102BD1D1247834B1022205
:10308800394B10201A70FFF787FD51E0FFF7CCFD90
:1030980049E02E4C354812F09DFF204600F07EFA9C
:1030A800334B24681D682B4B1E7800F083FA2146A9
:1030B80002463046A8473BE02E48244C12F08AFFCF
:1030C800294B1D78204600F069FA012D1ED00FD338
:1030D800022D28D1284812F07DFF1E4B24681D7848
:1030E80000F068FA214602462846FFF791FD1AE0EB
:1030F800224812F06FFF174B24681D7800F05AFA27
:10310800214602462846FFF76BFD0CE01C4812F0EA
:1031180061FF104B24681D7800F04CFA21460246E6
:103128002846FFF769FDFFF755FD01E0062000E09E
:10313800002002B0BDE8F0870500002052400208D8
:1031480062400208786B0120746B01207C6B0120BF
:10315800806B01206C6B01207B400208836B01208F
:10316800646B0120796B0120826B01208D4002087D
:10317800846B0120A2400208E9400208BA40020814
:10318800D340020804410208014B1878704700BF79
:103198006C6B0120014B1870704700BF6C6B0120ED
:1031A800014B1870704700BF826B012070B515463F
:1031B80006460C46FFF78AFE3046214608222B4673
:1031C800FFF770FD01280FD1B4F5964F97BF094856
:1031D80023206400B0FBF4F080B2FFF705FE01285D
:1031E8000CBF0024032400E00324FFF771FE2046EF
:1031F80070BD00BFA07F170008B5FFF767FE064B3C
:10320800002101201970FFF71BFDFFF7EFFDBDE856
:103218000840FFF75DBE00BF926C012008B5FFF7BC
:1032280055FE00200146FFF70BFDFFF717FEBDE82E
:103238000840FFF74DBE00002DE9F041164D8046CD
:103248000E461746FFF742FE2B889BB2FF2B05D987
:103258001248134A134BA32112F096FD2B889BB2F8
:10326800032B01D8052411E029880F4C89B2204688
:1032780000F0B2F90028F5D12346044613F8012BD3
:1032880088F800202A88033A3A803360FFF720FE46
:103298002046BDE8F08100BF8A6C0120C7410208C2
:1032A8009C410208EE410208886B012010282DE994
:1032B800F04107460E46904634D8FFF707FE1B4BF1
:1032C8001D78EDB2012D27D1194C1A4B2580701E9F
:1032D80006F8017C1860238818FA83F292B22280DB
:1032E800218889B200F078F9238813499BB25A1CC7
:1032F80092B22280C2B2CA5423889BB25A1C92B29C
:10330800C0F307202280C8540C4B002029461D70AA
:103318000024FFF795FC00E00524FFF7D9FD2046BF
:10332800BDE8F0810220BDE8F08100BF926C012069
:103338008C6C0120946C0120986C01208E6C01200B
:10334800204B37B51A781D4642B11B78022B05D0A1
:103358001D481E4A1E4BEE2112F016FD1D4C0DF1A4
:103368000700FFF7A9FC2378032B27D8DFE803F031
:1033780024021324FFF772FD174A00232B701380D1
:1033880013889BB2591C89B21180144A9DF8071002
:10339800D15402230FE0104A13889BB2FF2B09D89F
:1033A80013889BB2591C89B211800C4A9DF80710EA
:1033B800D15401E003232370FFF718FD002003B068
:1033C80030BD00BF8E6C0120C7410208B041020821
:1033D80019420208926C01208A6C0120886B012036
:1033E80038B5214B1878C0B2012806D01F48204AAA
:1033F800204B4FF4987112F0C7FC1F4D2B7803F047
:10340800FF0113B1012903D02BE0FFF719FC28E0D5
:103418001A4C228892B262B1194D2B681878FFF7BE
:1034280043FC2B6801332B602388013B9BB223802C
:1034380017E0144B144C1B78B3FA83F308465B0966
:1034480011462370FFF7FCFB02232B702378012B16
:1034580002D1FFF7DBFC04E00C4812F0BBFDFFF7DC
:10346800E7FC002038BD00BF926C0120C74102086C
:10347800844102085E4202088E6C01208C6C012097
:10348800946C0120986C0120886C01207B42020812
:10349800344B70B51C78E4B2022C1D4607D0032CBF
:1034A8000DD0A4B9304812F095FD012003E02F4853
:1034B80012F090FD2046FFF76FFB04461BE02C48F6
:1034C80012F088FD0120FFF76BFE1020F3E71A7851
:1034D80002F0FF047AB11A78022A0BD01A78032A6C
:1034E80008D01B78012B05D02248234A234B4FF4E0
:1034F800BE7123E0002401232B70214D2B78022B71
:103508002E460ED11F4812F065FD1F4B1B7803F0A5
:10351800FF00ABB9FFF744FE1020FFF73DFB044660
:103528000EE01A4812F056FD2B78022B08D02B78A3
:1035380033B11048104A164B40F2911112F024FC96
:1035480000231448337012F045FDFFF787FC124B37
:103558001B78022B04D10420BDE87040FFF71CBB88
:10356800204670BD926C012094420208A4420208D1
:10357800B3420208C7410208C4430208C442020811
:103588008E6C012051430208886C012061430208B7
:1035980068430208AD4302088F6C0120014B0360A9
:1035A800704700BF996C0120014B1880704700BF1D
:1035B800906C0120014B188880B27047906C0120F4
:1035C800014B1870704700BF8F6C0120014B1878B1
:1035D800704700BF886C0120FF2310B51C460139D5
:1035E80089B24FF6FF72914208D010F8012B5A4069
:1035F800044B9B5C6340044CA45CF0E743EA042062
:1036080010BD00BFDD440208DD430208082AF8B5F2
:10361800164605D90E480F4A0F4B382112F0B4FB55
:10362800CD086C1C0122B240075D465D013AA1EB52
:10363800C50192B28A4046EA072689B226EA020202
:103648008B4013439BB243551B0A0355F8BD00BF7B
:10365800E54502081F4602081246020807289ABFD5
:10366800014B185C04207047DD450208102873B52B
:1036780006460D46144625D81846FFF7A9FA18B38A
:10368800134812F0A7FC01A8FFF788FF3046FFF7A0
:1036980081FD019B01221A70019B2A0A5A70019B25
:1036A8009D70019B220ADA70019B05201C71FFF7AF
:1036B8007BFF0820FFF770FA0648002112F048FC4B
:1036C800002002E0022000E0052002B070BD00BF2B
:1036D8002E4602084946020837B505460C46FFF74C
:1036E80075FF08B100202FE02388012B01D80320A3
:1036F8002AE001A8FFF752FF019BDC7859789A78F5
:103708001B7943EA0424630703D0E3080133DBB2DF
:1037180003E0002CEBD0C4F3C70368789842E6D1E5
:1037280042EA01210131A81C89B222460023FEF792
:103738006DF8E10805460131044812F009FC002D36
:10374800D0D02846FFF78AFF03B030BD6146020893
:103758000B88052B13B51CD1027941788378C2B93F
:10376800C478601EC0B2FD2813D9FF2C8DF805203F
:1037780043EA012108BF01228DF80420013101220A
:1037880001A889B21346FEF741F820B1FFF766FF9A
:1037980001E00320FFE702B010BD0B88052B37B509
:1037A800044610D101A8FFF7F9FE2379E2780198C1
:1037B8006578A178447943EA0222530709D0D308EF
:1037C8000133DBB209E0FFF701FF0028EAD103204B
:1037D80011E0002AFBD0C2F3C703A342F7D141EAA4
:1037E80005210131063089B20123FEF70FF810B127
:1037F800FFF734FFFFE703B030BD000038B5064BD4
:103808001C880D462246054901340130FCF7B8FCF6
:103818002C80002038BD00BF966D0120986D0120D6
:1038280037B504460D46FFF7D1FE08B1002026E063
:103838002B88012B01D8032021E001A8FFF7AEFE59
:10384800019BDA78587899781B7943EA0222530762
:1038580003D0D3080133DBB203E0002AEBD0C2F374
:10386800C70365789D42E6D141EA00210131A01CD9
:1038780089B2FEF70DF80028D8D0FFF7EFFE03B0A5
:1038880030BD000037B5044614480D4612F0A2FBBF
:10389800FFF79CFE08B100201EE02B88012B01D801
:1038A800032019E001A8FFF779FE019BDA78587820
:1038B80099781B7953EA0222F2D06378B3EB420F6E
:1038C800EED141EA00210131A01C89B2FDF72EFF9B
:1038D8000028E0D0FFF7C2FE03B030BD6C460208F6
:1038E80008B50B88052B0FD18378417843EA01216D
:1038F80001310122033089B21346FDF753FF28B185
:10390800BDE80840FFF7AABE032008BD08BD0B8824
:10391800052B13B50ED101A8FFF740FE0198C47816
:1039280002794178837842EA04224479B4EB420F61
:1039380004D105E0FFF74AFE0028ECD103200BE094
:1039480043EA01210131063089B20123FDF72AFF3C
:1039580010B1FFF783FEFFE702B010BD102873B562
:1039680006460D4614461ED81846FFF731F9E0B151
:1039780001A8FFF713FE3046FFF70CFC019B03225A
:103988001A70019B2A0A5A70019B9D70019B220A9A
:10399800DA70019B05201C71FFF706FE0820FFF76F
:1039A800FBF8002002E0022000E0052002B070BD14
:1039B80073B505460E46FFF709FE044608B1002018
:1039C8001FE03388012B01D803201AE001A8FFF774
:1039D800E5FD0198C37802794678817852EA032296
:1039E800F2D06B78B3EB420FEED141EA06210131F8
:1039F800A81C89B22346FDF7D5FE0028DFD0FFF7C3
:103A08002DFE02B070BDF7B505460C46FFF7DEFD8A
:103A180008B1002032E02388012BFAD901A8FFF76A
:103A2800BDFD019895F801C00379C6784778847878
:103A3800417990F807E0027A43EA0626BCEB460F84
:103A480083791AD143EA0121013101230A3089B26D
:103A580042EA0E22FDF7A6FE034650B944EA0721C2
:103A68000131A81C89B23246FDF79CFE03460028A6
:103A7800CFD01846FFF7F2FD00E0032003B0F0BDF9
:103A880084B02DE9F047064609A880E80E00274BC8
:103A9800DDF828A0DDF82C800C9C0D9F0E9D9E4221
:103AA800894603D02248DA21FDF7FEFE39F4005397
:103AB80003D01F48DB21FDF7F7FE3AF4806303D0FB
:103AC8001B48DC21FDF7F0FE38F4007303D01848DA
:103AD800DD21FDF7E9FE34F4006306D0B4F5805F1C
:103AE80003D01348DE21FDF7DFFE37F4804303D00F
:103AF8000F48DF21FDF7D8FEFF2D03D90C48E02140
:103B0800FDF7D2FE4AEA0909726849EA080848EA54
:103B180004043C4322F4FD43254323F07F032B4355
:103B28007360BDE8F047002004B07047002C0140E6
:103B380080460208D0F8800070470B68C0F88030D3
:103B4800002070470323036000207047006800F0DE
:103B58000300704738B54B683F2B05460C4604D91F
:103B68001B4840F26511FDF79FFEA36833F0400241
:103B780006D0C02B04D016484FF4B371FDF794FE5D
:103B8800E36833F4807207D0B3F5007F04D010489F
:103B980040F26711FDF788FE236933F4806304D08F
:103BA8000B484FF4B471FDF77FFE2368AB60A16842
:103BB8006368EA681943E3680B432169194322F4EF
:103BC8007F6323F00F030B43EB60002038BD00BF79
:103BD800804602080069C0B27047000013B5002390
:103BE800019330F00C03044604D0064840F29311C8
:103BF800FDF75AFE044B23440193019B186802B059
:103C080010BD00BF80460208142C014038B54B682F
:103C1800B3F1007F05460C4604D322484FF4D47113
:103C2800FDF742FEA36833F0300223F010010CD0F8
:103C3800402A0AD0802A08D0C02906D0E02B04D018
:103C4800184840F2A911FDF72FFEE36833F002038C
:103C580004D014484FF4D571FDF726FE236933F0DC
:103C6800040304D00F4840F2AB11FDF71DFE636951
:103C7800012B04D90B484FF4D671FDF715FEA26845
:103C8800E16823686B62114363682269AB62EB6A7F
:103C98001143626923F0F7030A431343EB620020E0
:103CA80038BD00BF80460208F8B503680F2B0446EC
:103CB80004D9A24840F21511FDF7F6FD2368D8078C
:103CC80003D42368990756D4B7E06368012B06D953
:103CD800052B04D099484FF48D71FDF7E5FD984BFD
:103CE8009A6802F00C02042A07D09A6802F00C02C3
:103CF800082A0BD15B685A0208D5914B1B689B03B5
:103D0800DFD56368002BDCD10120F8BD8D4D002381
:103D18002B7003F065FC0646894B1B689F0308D58A
:103D280003F05EFC41F28833801B9842F4D90320EB
:103D3800F8BD23792B70636873B103F051FC054615
:103D48007F4B1B689803BCD403F04AFC41F28833CC
:103D5800401B9842F4D9EAE703F042FC0546784B49
:103D68001B689903ADD503F03BFC41F28833401B37
:103D78009842F4D9DBE7E368012B04D96F484FF484
:103D8800AD71FDF791FD23691F2B04D96B4840F2F3
:103D98005B11FDF789FD6A4B9A6812F00C0F07D08A
:103DA8009A6802F00C02082A18D15B685A0215D4E6
:103DB800634A13689B0702D5E368012BA4D11168F5
:103DC800F82393FAA3F3B3FA83F32069DBB298409C
:103DD80021F0F80140EA010313602EE0E2685A4B33
:103DE800EAB101221A6003F0FBFB054654490B684F
:103DF8009F0705D403F0F4FB401B6428F6D996E727
:103E08000A68F82393FAA3F3B3FA83F32069DBB2C1
:103E1800984022F0F80240EA02030B600DE01A60B5
:103E280003F0DEFB0546464B1B689E0705D503F0ED
:103E3800D7FB401B6428F6D979E723681D0703D40C
:103E48002368580728D452E06369012B04D93B48FA
:103E58004FF4CD71FDF728FD62693C4B72B1012228
:103E68001A6003F0BDFB0546354B5B6F9907E7D435
:103E780003F0B6FB401B6428F6D958E71A6003F034
:103E8800AFFB05462E4B5B6F9A07D9D503F0A8FB0D
:103E9800401B6428F6D94AE7A368012B30D8284A82
:103EA800136C43F080531364A2F5E432136843F4AF
:103EB8008073136003F094FB0546254B1B68DB05F4
:103EC80026D5244D00232B7003F08AFB06461C4B95
:103ED8001B6F9F0722D4237A2B70A368012B3BD139
:103EE80003F07EFB0546164B1B6F9E071ED5A36984
:103EF800022B40D911484FF40271FDF7D5FC3AE086
:103F0800052BCCD00D484FF4E271FDF7CDFCC6E788
:103F180003F066FB401B6428CFD908E703F060FB79
:103F280041F28833801B9842D1D900E703F058FB4F
:103F380041F28833401B9842D5D9F8E6E04602089A
:103F4800003802400238024000004742800E4742D3
:103F5800007000407038024003F042FB0546504BA9
:103F68001B6F9807C3D503F03BFB41F28833401B16
:103F78009842F4D9DBE6A2690AB90020F8BD484B9B
:103F88009B6803F00C03082B3FF4BEAE022A454D94
:103F980075D1E36933F4800304D0434840F211211A
:103FA800FDF782FC236A3F2B04D93F4840F21221D7
:103FB800FDF77AFC636AC03BF02B04D93A4840F21B
:103FC8001321FDF771FCA36A23F00402022A08D02A
:103FD800042B06D0082B04D033484FF40571FDF7A5
:103FE80063FCE36A043B0B2B04D92F4840F21521EC
:103FF800FDF75AFC00232B6003F0F2FA0746284E1F
:104008003368990105D503F0EBFAC01B6428F6D98B
:104018008DE647F6C07090FAA0F0B0FA80F04FF441
:10402800403191FAA1F1B1FA81F14FF0706292FA40
:10403800A2F2B2FA82F2276AE3693B4343F00057DF
:10404800636AC0B2834047EA0300A36A5B08C9B247
:10405800013B8B40D1B2E26A03438A401343736049
:1040680001232B6003F0BCFA04460D4B1B689A0130
:1040780083D403F0B5FA001B6428F6D957E6002369
:104088002B6003F0ADFA0446054B1B689B017FF5D6
:1040980074AF03F0A5FA001B6428F5D947E600BF02
:1040A8000038024060004742E04602080368013BCE
:1040B8000E2B70B504460D4604D9A54840F273216D
:1040C800FDF7F2FB0F2D04D9A1484FF41D71FDF740
:1040D800EBFBA04B1A6802F00F02954240F2818078
:1040E800EAB21A701B6803F00F03AB4201D001203B
:1040F80070BD23689E071DD5A36833F0800212D0D7
:1041080023F02002902A0ED023F04002A02A0AD0E1
:1041180023F01002C02A06D0F02B04D08C4840F2BD
:104128008A21FDF7C1FB8C498B6823F0F002A36854
:1041380013438B602368DD0704D42368580700F114
:10414800CE80E4E06368022B04D9814840F29121D3
:10415800FDF7AAFB6268804B012A196802D111F4A5
:10416800003F06E0022A02D111F0007F01E011F0C1
:10417800020FBCD0996821F003010A439A6003F04A
:104188002FFA6368012B05460ED1734B9B6803F029
:104198000C03042BD1D003F023FA41F28833401BDF
:1041A8009842F2D9032070BD022B14D16A4B9B6848
:1041B80003F00C03082BC0D003F012FA41F2883345
:1041C800401B9842F2D9EDE703F00AFA41F288332E
:1041D800401B9842E6D8604B9B6813F00C0FF3D154
:1041E800ABE7236899071DD5A36833F0800212D086
:1041F80023F02002902A0ED023F04002A02A0AD0F1
:1042080023F01002C02A06D0F02B04D0504840F208
:10421800D921FDF749FB50498B6823F0F002A368C8
:1042280013438B602368DA0709D44A4BEAB21A7041
:104238001B6803F00F03AB427FF459AF7DE7636857
:10424800022B04D942484FF43871FDF72DFB626800
:10425800414B012A196802D111F4003F06E0022AF5
:1042680002D111F0007F01E011F0020F3FF43FAFDF
:10427800996821F003010A439A6003F0B1F9636871
:10428800012B06460DD1344B9B6803F00C03042B1D
:10429800CBD003F0A5F941F28833801B9842F2D9BC
:1042A80080E7022B15D12C4B9B6803F00C03082BDD
:1042B800BBD003F095F941F28833801B9842F2D9BC
:1042C80070E703F08DF941F28833801B98423FF67E
:1042D80069AF214B9B6813F00C0FF2D1A5E7E36897
:1042E80033F480520CD023F40062B2F5A05F07D0FB
:1042F800B3F5C05F04D016484FF44C71FDF7D4FAFB
:1043080015498B6823F4E052E36813438B602368F4
:104318001B0718D5236933F480520CD023F40062AC
:10432800B2F5A05F07D0B3F5C05F04D0084840F2EB
:104338003731FDF7B9FA084A2169936823F46043D5
:1043480043EAC10393600F2003F01AF9002070BDFF
:10435800E0460208003C02400038024030B51D4CDF
:10436800A36803F00C03042B30D0082B30D162680B
:10437800636802F03F0513F4800F47F6C071636865
:1043880091FAA1F1B1FA81F147F6C07004BF124A5F
:10439800B2FBF5F2C9B200EA030020FA01F01CBF33
:1043A8000E49B1FBF5F202FB00F30A4A50684FF4DC
:1043B800403292FAA2F2B2FA82F2D2B200F440305B
:1043C800D04001304000B3FBF0F030BD034830BDB1
:1043D800014830BD003802400024F40040787D01D7
:1043E80008B5FFF7BBFF094B9A68F02393FAA3F3CC
:1043F800B3FA83F302F0F002DBB222FA03F3044AC1
:10440800D35CD840034B186008BD00BF0038024099
:10441800D04602080000002008B5FFF7E1FF084B6E
:104428009A684FF4E05393FAA3F3B3FA83F302F4D0
:10443800E052DBB222FA03F3024AD35CD84008BD4B
:1044480000380240D046020808B5FFF7C9FF084BFC
:104458009A684FF4604393FAA3F3B3FA83F302F430
:104468006042DBB222FA03F3024AD35CD84008BDAB
:1044780000380240D04602080F2303600B4B9A68AD
:1044880002F0030242609A6802F0F00282609A68C1
:1044980002F4E052C2609B6803F46043DB080361E6
:1044A800034B1B6803F00F030B6070470038024092
:1044B800003C024003685A6B12F0450FFBD05A6B60
:1044C800520703D504229A6303207047586B10F0F3
:1044D800010015BF012040F2FF5298639A637047AC
:1044E80070B5436A86B01B0401930D2305460293F9
:1044F8004023002203930E464FF480630068009225
:1045080001A904920593FFF725FB2868436B13F074
:10451800450FFBD0436B5B0703D50423836303205C
:104528007CE0436B13F0010403D001238363184636
:1045380074E0FFF74FFB0D2801D010206EE02B68C8
:1045480040F2FF529A632046FFF748FB0090009B19
:104558003348C3F343233370009B184000285DD0D1
:10456800009B002B39DB009B5D0038D4009B9C002E
:1045780037D4009BD90036D4009B1A0135D4009B50
:104588005B0134D4009BDE0133D4009B1D0232D47E
:10459800009B5C02D1D4009B99022ED4009BDA02C6
:1045A8002DD4009B1B032CD4009B5E032BD4009BB3
:1045B8009D032AD4009BDC0329D4009B190428D42A
:1045C800009B5A0427D4009B9B0426D4009B13F01D
:1045D800080F14BF1A20002020E01C201EE009202C
:1045E8001CE00A201AE00B2018E00C2016E00D2031
:1045F80014E00E2012E00F2010E011200EE012202F
:104608000CE013200AE0142008E0152006E016202C
:1046180004E0172002E0182000E0192006B070BD61
:1046280008E0FFFD70B5054600680E46436B13F0C1
:10463800450FFBD0436B5B0703D50423836303203B
:1046480070BD436B13F0010402D00123836339E08A
:10465800FFF7C0FAB04201D0102070BD2B6840F2BD
:10466800FF529A632046FFF7B9FA284B03404BB331
:10467800002829DB450029D4840029D4C10029D485
:10468800020129D4430129D4C60129D4050229D419
:104698004402E1D4810227D4C20227D4030327D4D9
:1046A800460327D4850327D4C40327D4010427D479
:1046B800420427D4830427D410F0080F14BF1A200B
:1046C800002070BD184670BD1C2070BD092070BD4B
:1046D8000A2070BD0B2070BD0C2070BD0D2070BD70
:1046E8000E2070BD0F2070BD112070BD122070BD4E
:1046F800132070BD142070BD152070BD162070BD2C
:10470800172070BD182070BD192070BD08E0FFFD8E
:10471800F0B58FB000230546019302931024402280
:1047280006930E464FF4806303A908270068039791
:10473800049405920793FFF70DFA28462146FFF7E0
:1047480071FF002861D16B6A2868A34003A9372448
:1047580003930494FFF7FEF921462846FFF762FF0A
:104768000446002851D14FF0FF33089330230A93B1
:1047780002230B930C90012308A928680D9309972D
:10478800FFF744FA039403A9332428680494FFF735
:10479800E1F928462146FFF745FF002835D16C4648
:1047A8002868426B40F22A6313403BB9436B9F026F
:1047B800F7D5FFF7BFF944F8040FF1E7436B190782
:1047C80003D50823836304201FE0436B9A0702D5AF
:1047D8000223836318E0436B9B0603D5202383637E
:1047E800062012E0436B13F4007304D04FF40073F7
:1047F8008363072009E040F2FF528263019A12BAEC
:104808007260029A12BA326018460FB0F0BD704753
:10481800026A81F85620426AA1F8542090F82B20A9
:10482800034690090870C2F3830002F0030248703F
:104838008A7093F82A20CA7093F829200A7193F88D
:1048480028204A71DA6A100E0001C880C888C2F3AD
:10485800074280B240EA121002F00F02C8800A72C2
:1048680093F82D20D0094872C2F380108872C2F3E1
:104878004010C872C2F300100873002048732DE975
:10488800F0431C6A012C3DD802F0030292020A612F
:104898000A6993F82C4042EA84020A610C6993F889
:1048A800332044EA92140C61C2F3C20402F00702F6
:1048B8000C754A7593F8322054098C75C2F382043A
:1048C80002F003025200CC750A760C7E93F8312070
:1048D80044EAD2140C760E690D7E0F7A0124023553
:1048E80004FA07F7AC404FEAE4790136A4FB074520
:1048F80007FB0955A4FB068906FB05990F65C1E965
:10490800128923E0022C20D1DA6A02F03F02120455
:104918000A611A6B0C69150E44EA05240C610C69CE
:10492800C2F307452C430C610C690025013445F19D
:104938000005ED0445EA5435E4048C644FF4007432
:10494800C2F30722CD640C6500E02920C2F380146D
:1049580002F03F0252004C768A761A6B8D7EC2F3C3
:10496800C0142C4302F07F028C76CA7693F8372065
:10497800D4090C77C2F341144C77C2F3820402F0D5
:10498800030292008C77CA7793F83620CC7F44EAEA
:104998009214CC77C2F3401481F8204002F001024F
:1049A800002481F8214081F8222093F83520D40989
:1049B80081F82340C2F3801481F82440C2F34014E4
:1049C80081F82540C2F3001481F82640C2F381041F
:1049D80002F0030281F8274081F828205A6B01244D
:1049E800C2F3460281F8292081F82A4093F83B2037
:1049F80081F82C209A6BC2F307452D02CD85CD8D09
:104A0800AEB2C2F3072535431206CD850A63DA6BC9
:104A18000D6B160E45EA06450D630D6BC2F307468E
:104A280045EA06250D630D6BC2F307263543D2B25E
:104A38000D6381F8342093F8432081F835201A6CEF
:104A4800C2F307452D068D638D6BC2F3072645EA31
:104A580006458D638D6BD2B245EA02228A638D6B5F
:104A68005A6C45EA12658D6391F83C50C2F30742CF
:104A780045EA121502F00F02120281F83C50CA876B
:104A88005B6CCA8F95B2C3F307222A43C3F346036C
:104A9800CA8781F8403081F84140BDE8F0830000C2
:104AA8002DE9F04790B0002504460E468DF81250C7
:104AB800FFF7ADFE76230F930D950E9510AB13E916
:104AC80007008DE807000A950B950C95A84F2068FC
:104AD8000AAB0ECBFEF7D4FF8DF8135020683D606B
:104AE800FFF730F8012002F081FD01233B6005A9A2
:104AF8004FF48063206809930595069507950895F6
:104B0800FFF728F82268536B4FF48031C3F3C013C2
:104B1800002B40F09B81536B0139C3F3C013F7D1CD
:104B280003238DF813309DF81310924811F010FAF2
:104B38009DF8133003F0FF05002B40F0B2804FF4CE
:104B4800D5730593082305A9069320684023079386
:104B5800FFF700F823685A6B12F0450F14BF0121C4
:104B680000214FF4803241B93AB1596B11F0450F29
:104B780014BF01210021013AF5E7596B0AB1480732
:104B880003D504229A63032505E05A6B510646BFF4
:104B980040229A6329258DF813509DF81310764802
:104BA80011F0D6F99DF81320002322B901222262C0
:104BB8004FF0804800E09846372505A920680593FE
:104BC8000695FEF7C7FF29462046FFF72BFD8DF80F
:104BD80013009DF81310694811F0BAF99DF81330C5
:104BE80003F0FF07002B57D10023372505A94FF005
:104BF800400A4FF480692068059308930695CDF81C
:104C08001CA0CDF82490FEF7A5FF29462046FFF703
:104C180009FD8DF813009DF8133003F0FF05002BF4
:104C28003FD148F0004343F4801305932068CDF842
:104C38001CA0292305A906930895CDF82490FEF712
:104C480089FF23685A6B12F0450FFBD05A6B520745
:104C580045BF0422032540F2FF529A6358BF9A6366
:104C68008DF813509DF8133003F0FF00CBB9FEF711
:104C7800B5FF002807F101074FF6FF7302DB9F42DB
:104C8800B2D101E09F4203D11B238DF8133008E015
:104C9800430044BF022323629DF81310384811F0E3
:104CA80057F99DF81330DBB28DF812309DF81230A9
:104CB80003F0FF05002B40F0C3802068FEF746FF95
:104CC800002800F08980236A042B20D00223069351
:104CD800C0230793206805954FF4806305A90895BC
:104CE8000993FEF737FF2046FFF7E4FB002875D14C
:104CF800FEF774FFA0630420FEF770FFE06308204E
:104D0800FEF76CFF20640C20FEF768FF6064236ADE
:104D1800022B01D9062B3BD103230693206840239D
:104D280005A90793FEF716FF2068436B13F0450F9C
:104D3800FBD0436B5F0703D50423836303254EE051
:104D4800436B13F0010702D00125856347E0FEF7A6
:104D580041FF03287FD1236840F2FF529A63384607
:104D6800FEF73CFF10F4604F0CD1000C11E000BFBF
:104D7800A08025422F4702084447020859470208E5
:104D88006F470208810468D4420464D4030466D4DB
:104D98000120236A042B22D06062092300040590B5
:104DA800069305A9C02320680793FEF7D3FE204683
:104DB800FFF780FB054690B9FEF710FFA0620420BC
:104DC800FEF70CFFE0620820FEF708FF20630C20C6
:104DD800FEF704FF606302E0252500E005468DF834
:104DE80012509DF812305BBB20463146FFF710FD8C
:104DF8008DF812009DF8123003F0FF02ABB9B6F837
:104E08005430206808921B04059340230725079314
:104E180005A94FF4806309930695FEF79BFE20468B
:104E28002946FFF7FFFB8DF8120004F1100393E801
:104E380007008DE80700231D0ECB2068FEF720FE33
:104E48009DF81200C0B210B0BDE8F08740F2FF53E1
:104E58009363002365E61025C1E71325BFE70F25F7
:104E6800BDE700BFF0B5036A032B8DB005460E46BB
:104E780000F08480022B00F28380B1F5805F00F09F
:104E88008180B1F5006F29D1002004900590FEF7CC
:104E9800A5FE80016ED4284604A9FFF739FC044614
:104EA800002872D1059B590366D56B6A09901B04CB
:104EB800069340233727089306A94FF48063286890
:104EC8000A930797FEF746FE28463946FFF7AAFBDE
:104ED8000446002859D10223069329E0002953D11A
:104EE800084604910591FEF779FE820142D42846CE
:104EF80004A9FFF70DFC0446002846D1059BDB03F7
:104F08003AD56B6A09901B04069340233727089308
:104F180006A94FF4806328680A930797FEF71AFEDC
:104F280028463946FFF77EFB044600282DD1069017
:104F3800062406A928680794FEF70CFE2146284691
:104F4800FFF770FB044600BB6B680693AB680793DA
:104F5800EB6808936B690A93AB690B9309960CABE2
:104F680013E907008DE8070006AB0ECB2868FEF7AB
:104F780087FD0AE00E2408E0252406E0272005E046
:104F8800002003E0272400E0262420460DB0F0BDD1
:104F980030B587B000234022054601930C240493C2
:104FA80001A94FF480630068039205930294FEF709
:104FB800D1FD28462146FFF735FB07B030BD2DE966
:104FC800F0430446006817460022C262226A022A99
:104FD8008DB004BF7F0A47EAC3574FF040030393DD
:104FE8004FF00003DDF85080049308BF4FF40078B9
:104FF80010264FF480630D4601A902960593DDF84B
:105008005490CDF80480FEF7A5FD31462046FFF701
:1050180009FB0646002840F08F804FF0FF330693C7
:1050280009FB08F3079390230893022309930A9036
:10503800012306A920680B93FEF7E8FDB9F1010FDB
:105048008CBF122311232068029301A90197FEF750
:1050580081FDB9F1010F204619D91221FFF7E2FAB3
:1050680000286AD12268516B40F22A330B4043BBB7
:10507800536B1804F7D52F1F05F11C082068FEF79D
:1050880059FD47F8040F4745F8D12035EAE71121C3
:10509800FFF7C8FA002850D12268516B40F22A6302
:1050A8000B4073B9536B1904F7D52F1F05F11C0872
:1050B8002068FEF73FFD47F8040F4745F8D1203533
:1050C800EAE723685B6BDB0509D5B9F1010F06D95F
:1050D800236A022B03D82046FFF75AFF06462368A7
:1050E8005A6B170703D508229A63042025E05A6BE8
:1050F800900702D5022098631FE05A6B910603D5EA
:1051080020229A63062018E05A6B920502D44FF0C9
:10511800FF370AE04FF400729A6307200DE047B1A9
:10512800FEF708FD45F8040B013F2068436B9B021E
:10513800F5D440F2FF53836330460DB0BDE8F083E9
:105148002DE9F04705468CB00068DDF85080159FC2
:10515800144600228DF80320C2622A6A022A04BF7C
:10516800640A44EAC3544FF0400303934FF000032A
:1051780008BF4FF400784FF0100904930E464FF41F
:10518800806301A9CDF80480CDF808900593FEF757
:10519800E1FC28464946FFF745FA002840F0C3805D
:1051A800012F8CBF1923182301A9286802930194A1
:1051B800FEF7D0FC012F28468CBF19211821FFF7D4
:1051C80031FA0446002840F0AE804FF0FF330693D2
:1051D8009023089309900A90012307FB08F8286890
:1051E800CDF81C8006A90B93FEF710FD012F40D9BE
:1051F8002B68596B40F21A320A409ABB596B490422
:10520800F7D5C4EB08031F2B13D813F0030F4FEA8D
:10521800930318BF01334FEA830906EB090A564581
:1052280005D031462868FEF788FC0436F7E74C4479
:105238000DE0914606EB0901286809F10409FEF71B
:105248007CFCB9F1200FF5D106F1200A203456462E
:10525800CEE7596B49040ED4596B40F21A620A40E2
:10526800002AF6D02B685B6BD80529D430E04C4473
:1052780056462B68F0E7C4EB08031F2B11D813F030
:10528800030F4FEA930318BF01334FEA830906EB74
:10529800090A5645EBD031462868FEF74EFC04361D
:1052A800F7E7914606EB0901286809F10409FEF7BA
:1052B80044FCB9F1200FF5D106F1200A2034D7E7D4
:1052C800012F05D92B6A022B02D82846FFF760FE6A
:1052D8002B685A6B140703D508229A63042022E02E
:1052E8005A6B900702D5022098631CE05A6BD106CE
:1052F80003D510229A63052015E05A6B920504D550
:105308004FF400729A6307200DE040F2FF529A634F
:1053180028460DF10301FFF7E3F820B99DF80330A3
:10532800063B012BF4D90CB0BDE8F08730B5436AD1
:1053380087B01B04019340230393002304460D25E3
:10534800049301A94FF48063006802950593FEF762
:1053580001FC20462946FFF765F938B9FEF73EFCFF
:10536800C0F34320043818BF012000E0022007B032
:1053780030BD2DE9F0410D460446164602F030F9DD
:10538800C5F3074807462368B8F1010F0CBF5869F1
:105398009869C04380B2284214BF0120002028B376
:1053A8005A69520510D51A6842F400721A606FF4EF
:1053B80080625A610423A3630120002384F8350026
:1053C80084F83430BDE8F081731CDCD046B9012381
:1053D80084F83530002384F834300320BDE8F081A8
:1053E80002F0FEF8C01BB042CDD9F0E7BDE8F0816D
:1053F8002DE9F0410E461D460446904602F0F0F8AD
:10540800330C0746B8F1000F34D15FFA83F82368EC
:10541800B8F1010F0CBF5B699B69DB439BB2334258
:1054280014BF01230023C3B16A1CF0D0CDB102F030
:10543800D7F8C01BA842EAD913E06B1C10D1236827
:10544800B8F1010F0CBF5B699B69DB439BB2334228
:105458000CBF01230023002BEFD10020BDE8F08111
:105468005DB9012384F83530002384F834300320F3
:10547800BDE8F0815FFA83F8E1E702F0B1F8C01BFC
:10548800A842DCD9EDE7000070B51646026813683B
:1054980043F4807313600D4600224FF00111334628
:1054A8000446FFF7A5FF20BB23692268B3F5804FA8
:1054B80003D105F0FE05156113E005F44073DB1117
:1054C80043F0F003136120460B493246FFF751FFC2
:1054D80020B1A36B042B0CD1012070BD2368EDB261
:1054E8001D61204605493246FFF743FF0028F0D1E9
:1054F80000E0032070BD00BF0800010002000100A9
:105508000368F7B516461A6842F480621A601A688A
:1055180042F480721A600D4600224FF001113346A2
:105528000446FFF765FFD0B923692268B3F5804FB9
:1055380004D145F00105EDB2156133E005F440737F
:10554800DF0947F0F003136120461B493246FFF795
:1055580010FF30B1A36B042B01D1012029E00320F7
:1055680027E023681549EDB232461D612046FFF752
:1055780000FF02460028EDD1236859690191996915
:1055880001910199196841F48071196020464FF022
:1055980001113346FFF72CFF0028E0D1226847F0BD
:1055A800F1031361204605493246FFF7E2FE002861
:1055B800D0D103B0F0BD00BF080001000200010017
:1055C80070B50446002800F0BB8003685D4A93422A
:1055D8000CD002F58062934208D002F580629342B3
:1055E80004D059484FF49671FCF75EF96368574A3E
:1055F800013B934204D9544840F22D11FCF754F969
:10560800A36833F4804304D04F484FF49771FCF7F4
:105618004BF9E36823F47F7323F0030323B14A486B
:1056280040F22F11FCF740F9236923F40043B3F546
:10563800804F04D044484FF49871FCF735F96369FA
:10564800012B04D9404840F23111FCF72DF9A36928
:1056580033F0FE0304D03C484FF49971FCF724F969
:10566800E36933F0400304D0374840F23311FCF7C4
:105678001BF9236A33F0800304D033484FF49A713E
:10568800FCF712F994F8353013B92046FCF7ACFA58
:1056980022682F4D022384F83530136823F0010364
:1056A8001360FEF7B9FE636822682A49B0FBF1F17E
:1056B800AB422E4688BF4FF49675516082BF69434E
:1056C8004FF47A75B1FBF5F1B34201F101011162B2
:1056D80008D85B00B0FBF3F0C0F30B03032B98BFB3
:1056E800042016E0A16849B903EB4303B0FBF3F0CB
:1056F800C0F30B0363B140F400400AE019214B43A7
:10570800B0FBF3F0C0F30B0313B140F4404000E0EA
:105718000120216AE369D0610B431360E1682369C2
:105728000B439360A16963690B43D360136843F02B
:105738000103136000200123A06384F8353070BD95
:10574800012070BD00540040844702087F1A0600FB
:10575800A086010040420F002DE9F34190F8354042
:10576800E4B2012C054617461E465ED1002A5AD0DF
:10577800002B58D003689B6913F0020855D190F8A4
:105788003430012B51D0122380F8353080F8344062
:10579800C0F83880089AFFF777FE28B1AB6B85F818
:1057A8003480042B0DD13EE02B685A6901929B6925
:1057B8000193019B1F49089B28460022FFF718FE0A
:1057C80008B1032032E02A683B7813615169731EDF
:1057D80049079BB202D401371E460EE043B928465A
:1057E8001449089B0022FFF703FE0028E9D107E0CF
:1057F8007B781361023EB6B20237002EDAD1EEE7AB
:105808002A680D49136843F400731360284601227F
:10581800089BFFF7EDFD0028D3D1012385F835302B
:1058280085F8340002E0204600E0022002B0BDE81E
:10583800F08100BF80000100020010002DE9FF4147
:1058480090F83550EDB2012D044617461E4640F03B
:10585800A980002A00F0A480002B00F0A180036832
:105868009B6913F0020840F09D8090F83430012BBA
:1058780000F09880222380F8353080F83450C0F842
:1058880038800A9AFFF73CFE28B1A36B84F834806D
:10589800042B33D184E02368012E1A680CD122F43A
:1058A80080621A605A6901929A690192019A1A688B
:1058B80042F400721A6016E0022E0CD122F48062C3
:1058C8001A601A6842F400621A605A6902929B6967
:1058D8000293029B07E042F480621A605A690392BD
:1058E8009B690393039B032E204640D8012E0BD1BE
:1058F80038490A9B0022FFF77BFD08B1032065E0C9
:1059080023681B693B704FE0022E33490A9B4FF016
:1059180000020ED1FFF76CFD0028EFD123681A684A
:1059280042F400721A601B693B7023681B697B7024
:105938003AE0FFF75DFD02460028DFD123681968C9
:1059480021F4806119601B693B70204622490A9B3B
:10595800FFF74EFD0028D1D123681A6842F400727F
:105968001A601B697B7023681B69BB701CE01949AE
:105978000A9B0022FFF73CFD0028BFD123681B6962
:105988003B70226853695B0759BF7B1C06F1FF36E1
:10599800BB1C126944BF7A70023EB6B21F46A2E72A
:1059A800284613E0022011E022680C49136823F40A
:1059B80000631360204601220A9BFFF719FD0028A7
:1059C8009CD1012384F8353084F8340004B0BDE854
:1059D800F08100BF40000100040001000200100037
:1059E80090F8350070470000C31E042B10B504461C
:1059F80003D90948A421FBF757FF084AD1684FF695
:105A0800FF030B4043F0BF6343F4003304F0070483
:105A180043EA0423D36010BDD347020800ED00E039
:105A28000F2A70B505460C46164603D91A48BC21FC
:105A3800FBF73AFF0F2C03D91748BD21FBF734FFBA
:105A4800164BDB68C3F30223C3F10702191D042AAE
:105A580028BF042206298CBF033B0023012101FA39
:105A680003F09140013901380C409C400640002D5C
:105A780044EA06044FEA0414AFBF05F1604505F097
:105A88000F05074BE4B2A5BF05F56145E4B25C55C7
:105A980085F8004370BD00BFD347020800ED00E061
:105AA80014ED00E010B5041E03DA0648D021FBF718
:105AB800FBFE6109012304F01F04034AA34042F8D6
:105AC800213010BDD347020800E100E00138B0F1F1
